:020000020000FC
:100000000C9404000C943D0062E17AE086E091E1FA
:1000100000E004B900E00AB95A9AE89A02E00093B5
:100020006900789484B985B922E03CEF4DE45DEC39
:100030005A95F1F74A95E1F73A95D1F72A95C1F724
:1000400074B975B92BEC3CEE45E84A95F1F73A9551
:10005000E1F72A95D1F7000064B965B922E03CEFD9
:100060004DE45DEC5A95F1F74A95E1F73A95D1F7F1
:100070002A95C1F710301127D5CF94B995B922E050
:100080003CEF4DE45DEC5A95F1F74A95E1F73A956E
:0A009000D1F72A95C1F71FEFB7CF93
:00000001FF
